{
  "contractName": "ComplexStorage",
  "abi": [
    {
      "constant": true,
      "inputs": [],
      "name": "string2",
      "outputs": [
        {
          "name": "",
          "type": "bytes32"
        }
      ],
      "payable": false,
      "stateMutability": "view",
      "type": "function",
      "signature": "0x0ca0aa79"
    },
    {
      "constant": true,
      "inputs": [],
      "name": "storeduint1",
      "outputs": [
        {
          "name": "",
          "type": "uint256"
        }
      ],
      "payable": false,
      "stateMutability": "view",
      "type": "function",
      "signature": "0x11f9c74d"
    },
    {
      "constant": true,
      "inputs": [],
      "name": "singleDD",
      "outputs": [
        {
          "name": "deviceBrand",
          "type": "string"
        },
        {
          "name": "deviceYear",
          "type": "string"
        },
        {
          "name": "batteryWearLevel",
          "type": "string"
        }
      ],
      "payable": false,
      "stateMutability": "view",
      "type": "function",
      "signature": "0x28a20b5e"
    },
    {
      "constant": true,
      "inputs": [
        {
          "name": "",
          "type": "uint256"
        }
      ],
      "name": "uintarray",
      "outputs": [
        {
          "name": "",
          "type": "uint256"
        }
      ],
      "payable": false,
      "stateMutability": "view",
      "type": "function",
      "signature": "0x6c0c1bcf"
    },
    {
      "constant": true,
      "inputs": [
        {
          "name": "",
          "type": "uint256"
        }
      ],
      "name": "deviceDataArray",
      "outputs": [
        {
          "name": "deviceBrand",
          "type": "string"
        },
        {
          "name": "deviceYear",
          "type": "string"
        },
        {
          "name": "batteryWearLevel",
          "type": "string"
        }
      ],
      "payable": false,
      "stateMutability": "view",
      "type": "function",
      "signature": "0x84eeda56"
    },
    {
      "constant": true,
      "inputs": [],
      "name": "string3",
      "outputs": [
        {
          "name": "",
          "type": "string"
        }
      ],
      "payable": false,
      "stateMutability": "view",
      "type": "function",
      "signature": "0x92755860"
    },
    {
      "constant": true,
      "inputs": [],
      "name": "constuint",
      "outputs": [
        {
          "name": "",
          "type": "uint256"
        }
      ],
      "payable": false,
      "stateMutability": "view",
      "type": "function",
      "signature": "0x97ba784f"
    },
    {
      "constant": true,
      "inputs": [],
      "name": "string1",
      "outputs": [
        {
          "name": "",
          "type": "bytes16"
        }
      ],
      "payable": false,
      "stateMutability": "view",
      "type": "function",
      "signature": "0xa7b2cfca"
    },
    {
      "constant": true,
      "inputs": [],
      "name": "investmentsDeadlineTimeStamp",
      "outputs": [
        {
          "name": "",
          "type": "uint32"
        }
      ],
      "payable": false,
      "stateMutability": "view",
      "type": "function",
      "signature": "0xdf4fddf5"
    },
    {
      "constant": true,
      "inputs": [],
      "name": "investmentsLimit",
      "outputs": [
        {
          "name": "",
          "type": "uint128"
        }
      ],
      "payable": false,
      "stateMutability": "view",
      "type": "function",
      "signature": "0xeec65f29"
    },
    {
      "inputs": [],
      "payable": false,
      "stateMutability": "nonpayable",
      "type": "constructor",
      "signature": "constructor"
    }
  ],
  "bytecode": "0x6080604052600f60005561429f600160006101000a8154816fffffffffffffffffffffffffffffffff02191690836fffffffffffffffffffffffffffffffff16021790555042600160106101000a81548163ffffffff021916908363ffffffff1602179055507f7465737431000000000000000000000000000000000000000000000000000000600260006101000a8154816fffffffffffffffffffffffffffffffff0219169083700100000000000000000000000000000000900402179055507f74657374313233360000000000000000000000000000000000000000000000006003556040805190810160405280601581526020017f6c65747320737472696e6720736f6d657468696e67000000000000000000000081525060049080519060200190620001319291906200080b565b503480156200013f57600080fd5b50600073bccc714d56bc0da0fd33d96d2a87b680dd6d0df69050600073aee905fdd3ed851e48d22059575b9f4245a82b0490506058600560008473ffffffffffffffffffffffffffffffffffffffff1673ffffffffffffffffffffffffffffffffffffffff168152602001908152602001600020819055506063600560008373ffffffffffffffffffffffffffffffffffffffff1673ffffffffffffffffffffffffffffffffffffffff168152602001908152602001600020819055506060604051908101604052806040805190810160405280600b81526020017f6465766963654272616e6400000000000000000000000000000000000000000081525081526020016040805190810160405280600a81526020017f646576696365596561720000000000000000000000000000000000000000000081525081526020016040805190810160405280600981526020017f776561724c6576656c0000000000000000000000000000000000000000000000815250815250600660008473ffffffffffffffffffffffffffffffffffffffff1673ffffffffffffffffffffffffffffffffffffffff16815260200190815260200160002060008201518160000190805190602001906200031492919062000892565b5060208201518160010190805190602001906200033392919062000892565b5060408201518160020190805190602001906200035292919062000892565b509050506060604051908101604052806040805190810160405280600c81526020017f6465766963654272616e6432000000000000000000000000000000000000000081525081526020016040805190810160405280600b81526020017f646576696365596561723200000000000000000000000000000000000000000081525081526020016040805190810160405280600a81526020017f776561724c6576656c3200000000000000000000000000000000000000000000815250815250600660008373ffffffffffffffffffffffffffffffffffffffff1673ffffffffffffffffffffffffffffffffffffffff16815260200190815260200160002060008201518160000190805190602001906200046e92919062000892565b5060208201518160010190805190602001906200048d92919062000892565b506040820151816002019080519060200190620004ac92919062000892565b509050506060604051908101604052806040805190810160405280600c81526020017f6465766963654272616e6433000000000000000000000000000000000000000081525081526020016040805190810160405280600b81526020017f646576696365596561723300000000000000000000000000000000000000000081525081526020016040805190810160405280600a81526020017f776561724c6576656c3300000000000000000000000000000000000000000000815250815250600960008201518160000190805190602001906200058b92919062000892565b506020820151816001019080519060200190620005aa92919062000892565b506040820151816002019080519060200190620005c992919062000892565b509050506007611f409080600181540180825580915050906001820390600052602060002001600090919290919091505550600761232890806001815401808255809150509060018203906000526020600020016000909192909190915055506008600660008473ffffffffffffffffffffffffffffffffffffffff1673ffffffffffffffffffffffffffffffffffffffff1681526020019081526020016000209080600181540180825580915050906001820390600052602060002090600302016000909192909190915060008201816000019080546001816001161561010002031660029004620006be92919062000919565b5060018201816001019080546001816001161561010002031660029004620006e892919062000919565b50600282018160020190805460018160011615610100020316600290046200071292919062000919565b505050506008600660008373ffffffffffffffffffffffffffffffffffffffff1673ffffffffffffffffffffffffffffffffffffffff1681526020019081526020016000209080600181540180825580915050906001820390600052602060002090600302016000909192909190915060008201816000019080546001816001161561010002031660029004620007ab92919062000919565b5060018201816001019080546001816001161561010002031660029004620007d592919062000919565b5060028201816002019080546001816001161561010002031660029004620007ff92919062000919565b505050505050620009cf565b828054600181600116156101000203166002900490600052602060002090601f016020900481019282601f106200084e57805160ff19168380011785556200087f565b828001600101855582156200087f579182015b828111156200087e57825182559160200191906001019062000861565b5b5090506200088e9190620009a7565b5090565b828054600181600116156101000203166002900490600052602060002090601f016020900481019282601f10620008d557805160ff191683800117855562000906565b8280016001018555821562000906579182015b8281111562000905578251825591602001919060010190620008e8565b5b509050620009159190620009a7565b5090565b828054600181600116156101000203166002900490600052602060002090601f016020900481019282601f1062000954578054855562000994565b828001600101855582156200099457600052602060002091601f016020900482015b828111156200099357825482559160010191906001019062000976565b5b509050620009a39190620009a7565b5090565b620009cc91905b80821115620009c8576000816000905550600101620009ae565b5090565b90565b610b0e80620009df6000396000f3fe6080604052600436106100a4576000357c0100000000000000000000000000000000000000000000000000000000900463ffffffff1680630ca0aa79146100a957806311f9c74d146100d457806328a20b5e146100ff5780636c0c1bcf1461026757806384eeda56146102b6578063927558601461044257806397ba784f146104d2578063a7b2cfca146104fd578063df4fddf51461054e578063eec65f2914610585575b600080fd5b3480156100b557600080fd5b506100be6105d4565b6040518082815260200191505060405180910390f35b3480156100e057600080fd5b506100e96105da565b6040518082815260200191505060405180910390f35b34801561010b57600080fd5b506101146105e0565b60405180806020018060200180602001848103845287818151815260200191508051906020019080838360005b8381101561015c578082015181840152602081019050610141565b50505050905090810190601f1680156101895780820380516001836020036101000a031916815260200191505b50848103835286818151815260200191508051906020019080838360005b838110156101c25780820151818401526020810190506101a7565b50505050905090810190601f1680156101ef5780820380516001836020036101000a031916815260200191505b50848103825285818151815260200191508051906020019080838360005b8381101561022857808201518184015260208101905061020d565b50505050905090810190601f1680156102555780820380516001836020036101000a031916815260200191505b50965050505050505060405180910390f35b34801561027357600080fd5b506102a06004803603602081101561028a57600080fd5b81019080803590602001909291905050506107c0565b6040518082815260200191505060405180910390f35b3480156102c257600080fd5b506102ef600480360360208110156102d957600080fd5b81019080803590602001909291905050506107e3565b60405180806020018060200180602001848103845287818151815260200191508051906020019080838360005b8381101561033757808201518184015260208101905061031c565b50505050905090810190601f1680156103645780820380516001836020036101000a031916815260200191505b50848103835286818151815260200191508051906020019080838360005b8381101561039d578082015181840152602081019050610382565b50505050905090810190601f1680156103ca5780820380516001836020036101000a031916815260200191505b50848103825285818151815260200191508051906020019080838360005b838110156104035780820151818401526020810190506103e8565b50505050905090810190601f1680156104305780820380516001836020036101000a031916815260200191505b50965050505050505060405180910390f35b34801561044e57600080fd5b506104576109e4565b6040518080602001828103825283818151815260200191508051906020019080838360005b8381101561049757808201518184015260208101905061047c565b50505050905090810190601f1680156104c45780820380516001836020036101000a031916815260200191505b509250505060405180910390f35b3480156104de57600080fd5b506104e7610a82565b6040518082815260200191505060405180910390f35b34801561050957600080fd5b50610512610a87565b60405180826fffffffffffffffffffffffffffffffff19166fffffffffffffffffffffffffffffffff1916815260200191505060405180910390f35b34801561055a57600080fd5b50610563610aaa565b604051808263ffffffff1663ffffffff16815260200191505060405180910390f35b34801561059157600080fd5b5061059a610ac0565b60405180826fffffffffffffffffffffffffffffffff166fffffffffffffffffffffffffffffffff16815260200191505060405180910390f35b60035481565b60005481565b6009806000018054600181600116156101000203166002900480601f01602080910402602001604051908101604052809291908181526020018280546001816001161561010002031660029004801561067a5780601f1061064f5761010080835404028352916020019161067a565b820191906000526020600020905b81548152906001019060200180831161065d57829003601f168201915b505050505090806001018054600181600116156101000203166002900480601f0160208091040260200160405190810160405280929190818152602001828054600181600116156101000203166002900480156107185780601f106106ed57610100808354040283529160200191610718565b820191906000526020600020905b8154815290600101906020018083116106fb57829003601f168201915b505050505090806002018054600181600116156101000203166002900480601f0160208091040260200160405190810160405280929190818152602001828054600181600116156101000203166002900480156107b65780601f1061078b576101008083540402835291602001916107b6565b820191906000526020600020905b81548152906001019060200180831161079957829003601f168201915b5050505050905083565b6007818154811015156107cf57fe5b906000526020600020016000915090505481565b6008818154811015156107f257fe5b9060005260206000209060030201600091509050806000018054600181600116156101000203166002900480601f01602080910402602001604051908101604052809291908181526020018280546001816001161561010002031660029004801561089e5780601f106108735761010080835404028352916020019161089e565b820191906000526020600020905b81548152906001019060200180831161088157829003601f168201915b505050505090806001018054600181600116156101000203166002900480601f01602080910402602001604051908101604052809291908181526020018280546001816001161561010002031660029004801561093c5780601f106109115761010080835404028352916020019161093c565b820191906000526020600020905b81548152906001019060200180831161091f57829003601f168201915b505050505090806002018054600181600116156101000203166002900480601f0160208091040260200160405190810160405280929190818152602001828054600181600116156101000203166002900480156109da5780601f106109af576101008083540402835291602001916109da565b820191906000526020600020905b8154815290600101906020018083116109bd57829003601f168201915b5050505050905083565b60048054600181600116156101000203166002900480601f016020809104026020016040519081016040528092919081815260200182805460018160011615610100020316600290048015610a7a5780601f10610a4f57610100808354040283529160200191610a7a565b820191906000526020600020905b815481529060010190602001808311610a5d57829003601f168201915b505050505081565b601081565b600260009054906101000a90047001000000000000000000000000000000000281565b600160109054906101000a900463ffffffff1681565b600160009054906101000a90046fffffffffffffffffffffffffffffffff168156fea165627a7a723058204c8822539054e762bb308535411d1ae3ca0593a0beffb15074bbd1b34128b3380029",
  "source": "pragma solidity >=0.4.21 <0.6.0;\r\n\r\ncontract ComplexStorage {\r\n    uint public storeduint1 = 15;\r\n    uint public constant constuint = 16;\r\n    uint128 public investmentsLimit = 17055;\r\n    uint32 public investmentsDeadlineTimeStamp = uint32(now);\r\n\r\n    bytes16 public string1 = \"test1\";\r\n    bytes32 public string2 = \"test1236\";\r\n    string public string3 = \"lets string something\";\r\n\r\n    mapping (address => uint) uints1;\r\n    mapping (address => DeviceData) structs1;\r\n\r\n    uint[] public uintarray;\r\n    DeviceData[] public deviceDataArray;\r\n    DeviceData public singleDD;\r\n\r\n    struct DeviceData {\r\n        string deviceBrand;\r\n        string deviceYear;\r\n        string batteryWearLevel;\r\n    }\r\n\r\n    constructor() public {\r\n        address address1 = 0xbCcc714d56bc0da0fd33d96d2a87b680dD6D0DF6;\r\n        address address2 = 0xaee905FdD3ED851e48d22059575b9F4245A82B04;\r\n\r\n        uints1[address1] = 88;\r\n        uints1[address2] = 99;\r\n\r\n        structs1[address1] = DeviceData(\"deviceBrand\", \"deviceYear\", \"wearLevel\");\r\n        structs1[address2] = DeviceData(\"deviceBrand2\", \"deviceYear2\", \"wearLevel2\");\r\n        singleDD = DeviceData(\"deviceBrand3\", \"deviceYear3\", \"wearLevel3\");\r\n\r\n        uintarray.push(8000);\r\n        uintarray.push(9000);\r\n\r\n        deviceDataArray.push(structs1[address1]);\r\n        deviceDataArray.push(structs1[address2]);\r\n    }\r\n}\r\n",
  "sourcePath": "C:/Development/eth-uport/contracts/ComplexStorage.sol",
  "compiler": {
    "name": "solc",
    "version": "0.5.0+commit.1d4f565a.Emscripten.clang"
  },
  "schemaVersion": "3.0.2",
  "updatedAt": "2019-02-16T01:53:39.677Z",
  "devdoc": {
    "methods": {}
  },
  "userdoc": {
    "methods": {}
  }
}